:1000000053C0E5C16CC06BC06AC069C068C067C03E
:1000100066C065C064C063C062C061C060C05FC0CC
:100020005EC05DC05CC009022200010100801909A8
:100030000400000103000000092101010001222346
:10004000000705810308000A1201100100000008E2
:100050004F1B020000010102000114034100560081
:100060005200200053007400690063006B0012030B
:1000700053007000610072006B00460075006E0056
:100080000403090405010906A101050719E029E790
:1000900015002501750195088102950175082565F2
:1000A000190029658100C00011241FBECFE5D4E0EE
:1000B000DEBFCDBF10E0A0E6B0E0E8EDF8E002C0A2
:1000C00005900D92A436B107D9F710E0A4E6B0E090
:1000D00001C01D92A53BB107E1F70DD3FBC390CF43
:1000E000CF93C62F2091600024FF0BC020918B007E
:1000F00038E8232720938B00FC018C2FACE8B0E07C
:1001000007C02AE520936000F7CF91919D9381501D
:100110008823D9F78CE890E06C2F42D1CC5FC09354
:100120006000CF910895CF93DF9380919B001816C4
:100130000CF0B0C090919800209197002D3209F0FA
:10014000A1C02AE5209361008B3009F09BC0CCE070
:10015000D0E0C91BD109C156DF4F8881807609F0F4
:1001600081C0109289008981882359F410928A00F5
:1001700089E890E090939A008093990090E882E05B
:1001800079C0853021F48A8180939C0071C08630CB
:1001900009F04CC08B81813019F488E490E01DC0D7
:1001A000823049F486E290E090939A00809399001F
:1001B00090EC82E25FC0833019F58A81882349F48C
:1001C00080E890E090939A008093990090EC84E00E
:1001D00051C0813049F48EE690E090939A0080936C
:1001E000990090EC82E146C0823009F03FC08AE578
:1001F00090E090939A008093990090EC84E13AC04B
:10020000813249F488E390E090939A0080939900BA
:1002100090EC89E02FC0823249F584E890E0909319
:100220009A008093990090EC83E224C0883019F4FE
:100230008EE990E00AC0893021F48A8180939E0083
:1002400017C08A3049F489E890E090939A0080932F
:10025000990090E881E00EC08B3051F483EC8093DC
:100260008B0006C0CE01E1D190E804C090EC01C043
:1002700090E880E02F81222339F42E81281720F482
:10028000822F02C090E880E0909365008093620026
:1002900010929B008091610084FF47C080916200B2
:1002A0008F3F09F442C0C82F893008F0C8E08C1B8A
:1002B000809362002091650020FF02C0D3EC01C052
:1002C000DBE42F5F209365008091990090919A0064
:1002D00026FD0AC0DC012C2FE1E8F0E00FC03491CC
:1002E0003D933196215004C02C2FFC01A1E8B0E0D1
:1002F0002223A9F705C03D91319321502223D9F73C
:100300008C0F911D90939A008093990081E890E062
:100310006C2F46D08C2F8C5FC83019F09FEF9093D4
:100320006200D0938000809361008AE090B394785B
:1003300019F48150D9F70DC0C1E08111C0E080915E
:1003400064008C1759F0CC2309F493D1C093640056
:1003500005C010929C0010929600EECFDF91CF91D5
:10036000089585B7836085BF8BB780648BBF83ECAE
:1003700080938B000895A82FB92F80E090E041E092
:1003800050EA60956F5F58F42D9138EF822797956A
:10039000879510F0842795273F5FC8F3F3CF089522
:1003A000EADF8D939D930895A6E088279927AA9563
:1003B00069F00197E1F38799FCCF879BFECF81E03D
:1003C0009927A0B3019611F0A478D9F70895CF9397
:1003D000CFB7CF93DF93879BFECF879B0BC0879BC5
:1003E00009C0879B07C0879B05C0879B03C0879B6D
:1003F00001C08BC06F93C0919800DD27C156DF4FBD
:100400002F9365E5879B03C02F916F91E6CF0F93E4
:100410001F934F9320E040E15F9300B3047807FB04
:1004200027F93F9350E03BE039C0147840642F77C0
:10043000012F53501EC0406810B314782F775350CB
:100440001FC0406400B32F770478D1F153500000EF
:1004500023C0406210B32F77147891F153500000FD
:1004600025C004781027515012F45D5F0000115030
:1004700027952C3F10B3C8F6147801270150279513
:100480002C3FC8F64227499300B3047810274F73D6
:10049000115027952C3FA8F64695469510B3147831
:1004A00079F00127015027952C3F98F66B5A60F39D
:1004B000315000B3B0F600C010E41ABF002719C0D5
:1004C0003B503195C31BD04010E41ABF0881033C58
:1004D00009F10B34F9F0209196001981110F1213D4
:1004E000EDCF4A81441F093651F10D3211F0013E22
:1004F00029F700939D003F915F914F911F910F91BC
:100500002F916F91CAB7C6FD66CFDF91CF91CFBF54
:10051000CF91189500919D00002369F310919B00E5
:10052000112391F5343092F130939B0000939700A2
:10053000109198003BE0311B3093980027C0009148
:100540009B0001300CF50AE54F7049F430916100D1
:1005500034FD1DC000936100C0E8D0E01CC03091A4
:10056000600034FD14C000936000CBE8D0E013C0FD
:10057000052710E000C0000002BB1AC0052710E0EC
:10058000221F1DC010E021C04AE502C032ED432FFA
:10059000C4E1D0E032E011B31468979A02B311BB02
:1005A00054E820E865E320FF052702BB279517954F
:1005B0001C3FF0F66695B8F7B1F720FF052702BBA0
:1005C000279517951C3FD0F62795179517FF0527F8
:1005D00000001C3F02BBB0F629913A9519F70B7742
:1005E00010919C00110FC651D04002BB11F0109326
:1005F000960010E41ABF006811B31B77402F4B77A9
:1006000054E05A95F1F702BB11BB42BB74CFE091A5
:100610006900F0916A00309711F0808101C080E09C
:1006200010926600809367000895FC0186E690E0D2
:1006300090939A0080939900808180768032A9F40B
:100640008181813019F4E3DF82E00895823041F442
:1006500088E690E090939A008093990081E0089555
:100660008A3029F483818093680080E0089580E0D7
:100670000895DF92EF92FF920F931F93CF93DF9332
:10068000C8E0D0E010E000E8D02ED10ED1BE8CDE64
:100690007C018CEEE81688E0F8060CF41D2D06951A
:1006A000219791F7812F815081BFC12FD0E02196F2
:1006B00010C07ADE8C5E984097FF03C090958195BC
:1006C0009F4F8E159F0514F411B77C0181B78F5F82
:1006D00081BF81B790E0C817D9075CF711BF61B738
:1006E00080E090E0EAD0DF91CF911F910F91FF90D1
:1006F000EF90DF9008958BE381BB8F9A84E190E0C7
:10070000EFE5FAEE3197F1F700C000000197C1F76D
:100710008F982EE088E190E00FB6F894A89581BDFF
:100720000FBE21BD82E08EBD80E487B987E886B91F
:1007300018DE789484E0E82E11E099249A942BE74F
:10074000C22E20E0D22E3AE0A32EB12C07E240E4E4
:10075000842E51E4752E6BE2F62EA895E4DC809190
:10076000600084FF1CC08091690090916A0000972E
:10077000B1F04DDF86E690E062E0B2DCE091690026
:10078000F0916A00CF01019690936A00809369000E
:1007900081818F3F21F410926A001092690008B69F
:1007A00002FE0DC0E8BE80916B008F5F80936B00EE
:1007B0008F3028F010926B0010936C00369A809165
:1007C0006C00882351F23699C8CF10926C0084B126
:1007D00095B190927D0010927C0020916D00D09296
:1007E0006A00C0926900222319F4F0927B0003C0D2
:1007F00028E220937B002091690030916A00B501C6
:1008000048D0482FCB01F90131971082F901329776
:10081000442311F4008302C0435E40839F016115AD
:10082000710569F7F0936A00E093690080916D00AB
:10083000882319F520917E0030917F00C90101962F
:1008400090937F0080937E00F292EF01C901B50181
:1008500020D09B01FE0131971082FE013297882340
:1008600011F4008302C0835E8083EF01611571057E
:1008700069F7F0936A00E093690080916D00882326
:1008800021F410936D0077B868CF10926D0087B88F
:1008900064CFAA1BBB1B51E107C0AA1FBB1FA61731
:1008A000B70710F0A61BB70B881F991F5A95A9F719
:1008B00080959095BC01CD010895262FE199FECF3A
:1008C0009FBB8EBB2DBB0FB6F894E29AE19A0FBE88
:0808D00001960895F894FFCF92
:0408D8005A5AFF0069
:00000001FF
